:100000000C942A000C943F000C943F000C943F0089
:100010000C943F000C943F000C943F000C943F0064
:100020000C943F000C943F000C943F000C943F0054
:100030000C943F000C943F000C943F000C943F0044
:100040000C943F000C943F000C943F000C943F0034
:100050000C943F0011241FBECFE5D8E0DEBFCDBF1A
:1000600010E0A0E6B0E0E8EDF3E002C005900D92EC
:10007000AE37B107D9F70E94CE010C94EA010C9477
:100080000000823419F118F4813439F00895833472
:10009000B1F1843409F44CC00895413059F42AB3C5
:1000A00081E090E002C0880F991F6A95E2F7822BE9
:1000B0008ABB08952AB381E090E002C0880F991F9F
:1000C0006A95E2F7809582238ABB0895413059F4FE
:1000D00027B381E090E002C0880F991F6A95E2F78C
:1000E000822B87BB089527B381E090E002C0880F80
:1000F000991F6A95E2F78095822387BB0895413066
:1001000059F424B381E090E002C0880F991F6A95EA
:10011000E2F7822B84BB089524B381E090E002C013
:10012000880F991F6A95E2F78095822384BB089512
:10013000413059F421B381E090E002C0880F991F4B
:100140006A95E2F7822B81BB089521B381E090E0AC
:1001500002C0880F991F6A95E2F78095822381BBC0
:100160000895823419F118F4813439F008958334F4
:10017000B1F1843409F44CC00895413059F42BB3E3
:1001800081E090E002C0880F991F6A95E2F7822B08
:100190008BBB08952BB381E090E002C0880F991FBC
:1001A0006A95E2F7809582238BBB0895413059F41C
:1001B00028B381E090E002C0880F991F6A95E2F7AA
:1001C000822B88BB089528B381E090E002C0880F9D
:1001D000991F6A95E2F78095822388BB0895413084
:1001E00059F425B381E090E002C0880F991F6A9509
:1001F000E2F7822B85BB089525B381E090E002C031
:10020000880F991F6A95E2F78095822385BB089530
:10021000413059F422B381E090E002C0880F991F69
:100220006A95E2F7822B82BB089522B381E090E0C9
:1002300002C0880F991F6A95E2F78095822382BBDE
:100240000895823459F018F4813431F008958334DC
:1002500039F0843439F008956BBB089568BB089574
:1002600065BB089562BB089541E060E082E40E94AE
:10027000B1008FE99FE00197F1F700C0000040E076
:1002800060E082E40E94B1008FE99FE00197F1F7FE
:1002900000C000000895682F81E40E94210140E021
:1002A00061E082E40E94B1000E943401089541E0BF
:1002B00060E081E40E94410041E061E081E40E944D
:1002C000410041E062E081E40E94410041E063E0DE
:1002D00081E40E94410041E064E081E40E94410029
:1002E00041E065E081E40E94410041E066E081E494
:1002F0000E94410041E067E081E40E94410041E04A
:1003000060E082E40E94410041E062E082E40E94F9
:10031000410041E061E082E40E94410040E062E08F
:1003200082E40E94B10088E30E944B0181E00E94B8
:100330004B018EE00E944B018FE19EE40197F1F7A3
:1003400000C000000895682F81E40E94210141E06F
:1003500061E082E40E94B1000E9434010895CF93CD
:10036000DF93EC0103C00E94A301219688818111D3
:10037000FACFDF91CF91089581E00E944B0108955B
:10038000813019F48FE7860F06C0823019F48FEBA5
:10039000860F01C080E80E944B0108950E9457011A
:1003A00080E690E00E94AF0161E082E00E94C0011F
:1003B00081E790E00E94AF012FEF89E698E121509C
:1003C00080409040E1F700C000000E94BC0180E046
:0803D00090E00895F894FFCFBE
:1003D80057656C636F6D6520746F20736D617274FF
:0E03E80000686F6D652073797374656D000099
:00000001FF
